:04000000ABEF0CF066
:100800000000000E596E010E586E000E576E000E5D
:10081000566E000E5B6E000E5A6E000E556E000E88
:10082000546E75EF07F077EC0CF0544A552A564A8F
:10083000572A5A4A5B2A57BE27EF04F0575009E15E
:10084000050E565CD8A027EF04F029EF04F057EF0F
:1008500004F082A22EEF04F030EF04F040EF04F039
:10086000000E576E000E566E41504210D8B43BEF4A
:1008700004F03DEF04F040EF04F04106D8A042063A
:1008800082A045EF04F047EF04F057EF04F0000EAC
:10089000576E000E566E060E41184210D8B453EF34
:1008A00004F055EF04F057EF04F0414A422A5BBED2
:1008B00063EF04F05B5009E1050E5A5CD8A063EFCA
:1008C00004F065EF04F09EEF04F037043810D8A46C
:1008D0006CEF04F06EEF04F09EEF04F082AC73EF67
:1008E00004F075EF04F085EF04F0000E5B6E000E6F
:1008F0005A6E3D503E10D8B480EF04F082EF04F001
:1009000085EF04F03D06D8A03E0682AE8AEF04F0E3
:100910008CEF04F0E6EF04F0000E5B6E000E5A6EF2
:10092000060E3D183E10D8B498EF04F09AEF04F08C
:10093000E6EF04F03D4A3E2AE6EF04F05A503B5CF5
:100940003C50800A516E5B50800A5158D8B0ABEFD2
:1009500004F0ADEF04F0E6EF04F0372806E13828A4
:10096000D8A4B5EF04F0B7EF04F0E6EF04F0000E02
:100970005B6E000E5A6E3D502B5C2C50800A516EFF
:100980003E50800A5158D8B0C8EF04F0CAEF04F0C6
:10099000CFEF04F03D06D8A03E06E6EF04F0010ECE
:1009A0003D24516E000E3E20526E2B50515C525031
:1009B000800A536E2C50800A5358D8B0E2EF04F0EE
:1009C000E4EF04F0E6EF04F09AEF04F0545033182B
:1009D00007E155503418D8A4F0EF04F0F2EF04F01A
:1009E00075EF07F0000E556E000E546E2B502C1054
:1009F000D8A4FDEF04F0FFEF04F01CEF05F02D0488
:100A00002E10D8A406EF05F008EF05F01CEF05F056
:100A10002F2806E13028D8A410EF05F012EF05F0DA
:100A20001CEF05F0312808E13228D8B41AEF05F0A0
:100A30001CEF05F042EF05F0070E2B182C10D8A480
:100A400024EF05F026EF05F094EF05F02D042E10AD
:100A5000D8A42DEF05F02FEF05F094EF05F02F044B
:100A60003010D8A436EF05F038EF05F094EF05F01C
:100A7000312806E13228D8A440EF05F042EF05F016
:100A800094EF05F03D502B1809E13E502C18D8B4D6
:100A90004CEF05F04EEF05F060EF05F0010E3D2440
:100AA000516E000E3E20526E2B50511807E12C5013
:100AB0005218D8A45EEF05F060EF05F08EEF05F058
:100AC0002FC04BF030C04CF0FF0E4E6E4D68E9EC7D
:100AD0000CF04BC02FF04CC030F031C04BF032C0A6
:100AE0004CF0FF0E4E6E4D68E9EC0CF04BC031F04F
:100AF0004CC032F03350355C3650800A516E345061
:100B0000800A5158D8B087EF05F089EF05F069EFFA
:100B100007F03306D8A0340669EF07F0000E596ECF
:100B2000000E586E69EF07F02B502C10D8A49BEFE5
:100B300005F09DEF05F0BAEF05F0060E2D182E100A
:100B4000D8A4A5EF05F0A7EF05F0BAEF05F02F2820
:100B500006E13028D8A4AFEF05F0B1EF05F0BAEF09
:100B600005F031043210D8B4B8EF05F0BAEF05F053
:100B7000E0EF05F0070E2B182C10D8A4C2EF05F0FB
:100B8000C4EF05F02BEF06F0060E2D182E10D8A49A
:100B9000CCEF05F0CEEF05F02BEF06F02F04301070
:100BA000D8A4D5EF05F0D7EF05F02BEF06F0310410
:100BB0003210D8A4DEEF05F0E0EF05F02BEF06F0E1
:100BC00041502B1809E142502C18D8B4EAEF05F037
:100BD000ECEF05F0FEEF05F0010E4124516E000E22
:100BE0004220526E2B50511807E12C505218D8A4B5
:100BF000FCEF05F0FEEF05F08EEF05F02FC04BF097
:100C000030C04CF0FF0E4E6E4D68E9EC0CF04BC05E
:100C10002FF04CC030F031C04BF032C04CF0FF0E22
:100C20004E6E4D68E9EC0CF04BC031F04CC032F028
:100C30003350355C3650800A516E3450800A51581A
:100C4000D8B025EF06F027EF06F069EF07F089EF3F
:100C500005F069EF07F02D042E10D8A432EF06F04E
:100C600034EF06F0B3EF06F0312806E13228D8A4BD
:100C70003CEF06F03EEF06F0B3EF06F031C04BF06C
:100C800032C04CF0FF0E4E6E4D68E9EC0CF04BC0DC
:100C900031F04CC032F03D502B1807E13E502C187B
:100CA000D8A455EF06F057EF06F078EF06F0335072
:100CB000355C3650800A516E3450800A5158D8B095
:100CC00064EF06F066EF06F069EF06F03306D8A091
:100CD00034062F2808E13028D8B471EF06F073EFFE
:100CE00006F069EF07F02F06D8A0300669EF07F08D
:100CF000010E3D24516E000E3E20526E2B505118B5
:100D000007E12C505218D8A488EF06F08AEF06F0BD
:100D1000A9EF06F03350355C3650800A516E3450DE
:100D2000800A5158D8B097EF06F099EF06F09CEF83
:100D300006F03306D8A034062F043010D8B4A3EF41
:100D400006F0A5EF06F029EF06F02F4A302A69EFEA
:100D500007F0000E596E000E586E000E2A6E010E3E
:100D6000296E69EF07F0060E2D182E10D8A4BBEFE0
:100D700006F0BDEF06F036EF07F031043210D8A4CC
:100D8000C4EF06F0C6EF06F036EF07F031C04BF0C7
:100D900032C04CF0FF0E4E6E4D68E9EC0CF04BC0CB
:100DA00031F04CC032F041502B1807E142502C1862
:100DB000D8A4DDEF06F0DFEF06F0FDEF06F03350CC
:100DC000355C3650800A516E3450800A5158D8B084
:100DD000ECEF06F0EEEF06F0F1EF06F03306D8A0E8
:100DE00034062F2808E13028D8B4F9EF06F0FBEFDD
:100DF00006F069EF07F073EF06F0010E4124516E23
:100E0000000E4220526E2B50511807E12C50521800
:100E1000D8A40DEF07F00FEF07F02CEF07F03350D9
:100E2000355C3650800A516E3450800A5158D8B023
:100E30001CEF07F01EEF07F021EF07F03306D8A0F4
:100E400034062F043010D8B428EF07F02AEF07F04B
:100E500029EF06F0A5EF06F0000E596E000E586E51
:100E6000000E2A6E020E296E69EF07F02B502C102F
:100E7000D8A43DEF07F03FEF07F049EF07F02F2828
:100E800008E13028D8B447EF07F049EF07F05CEFEE
:100E900007F0070E2B182C10D8A451EF07F053EFD2
:100EA00007F069EF07F02F043010D8A45AEF07F0CD
:100EB0005CEF07F069EF07F02FC04BF030C04CF04B
:100EC000FF0E4E6E4D68E9EC0CF04BC02FF04CC09D
:100ED00030F020EE2FF0DE502B26DD502C2220EEBD
:100EE00031F0DE502D26DD502E2258505910D8A456
:100EF0007CEF07F07EEF07F013EF04F01200000E16
:100F0000546E010E536E000E566E010E556EB9EF03
:100F100007F055045610D8A490EF07F092EF07F0B1
:100F200096EF07F0D9EC0AF098EF07F01EEC0BF003
:100F300082A29DEF07F09FEF07F0AEEF07F055C0DC
:100F40004BF056C04CF0FF0E4E6E4D68E9EC0CF0C5
:100F50004BC055F04CC056F0B9EF07F082A0B3EF8C
:100F600007F0B5EF07F0B9EF07F0000E546E000E72
:100F7000536E53505410D8A4C0EF07F0C2EF07F0DF
:100F800089EF07F055C037F056C038F0000E546EA8
:100F9000010E536E000E566E010E556E020E526E0D
:100FA000040E516EBA0EE82EFED7512EFCD7522EEB
:100FB000FAD700D039EF08F055045610D8A4E3EF63
:100FC00007F0E5EF07F0E9EF07F032EC0CF013EF74
:100FD00008F0020E55185610D8A4F1EF07F0F3EF01
:100FE00007F0F7EF07F063EC0BF013EF08F0030ED8
:100FF00055185610D8A4FFEF07F001EF08F005EFE1
:1010000008F0EDEC0BF013EF08F0040E5518561035
:10101000D8A40DEF08F00FEF08F013EF08F0A8ECDC
:101020000BF013EF08F082A218EF08F01AEF08F0A7
:101030002EEF08F0040E55185610D8A422EF08F031
:1010400024EF08F02AEF08F0000E566E010E556EE0
:1010500039EF08F0554A562A39EF08F082A033EFED
:1010600008F035EF08F039EF08F0000E546E000E6E
:10107000536E53505410D8B440EF08F042EF08F0CC
:101080004CEF08F0372808E13828D8B44AEF08F0C8
:101090004CEF08F0DCEF07F055C039F056C03AF0DD
:1010A0001200000E956E000E8C6E000E936E000EF8
:1010B0008A6E94809482948C948E000E346E190EF5
:1010C000336E000E366E050E356E7FEC07F0390478
:1010D0003A10D8A46EEF08F070EF08F076EF08F041
:1010E000000E3C6E100E3B6EA6EF08F0020E391893
:1010F0003A10D8A47EEF08F080EF08F086EF08F0F1
:10110000000E3C6E0C0E3B6EA6EF08F0030E391875
:101110003A10D8A48EEF08F090EF08F096EF08F0A0
:10112000000E3C6E080E3B6EA6EF08F0040E391858
:101130003A10D8A49EEF08F0A0EF08F0A6EF08F050
:10114000000E3C6E060E3B6EA6EF08F0F1EC08F0C8
:10115000000E346E140E336E01EC04F029042A10D4
:10116000D8A4B5EF08F0B7EF08F0B9EF08F0434A9C
:10117000442A020E29182A10D8A4C1EF08F0C3EFA0
:1011800008F0C5EF08F03F4A402A080E4318441003
:10119000D8A4CDEF08F0CFEF08F0DDEF08F0D7ECE2
:1011A00009F0000E446E000E436E000E406E000EFD
:1011B0003F6E7FEC07F067EF08F0080E3F18401015
:1011C000D8A4E5EF08F0E7EF08F0EBEF08F068ECE3
:1011D00009F0D1EF08F092EC0AF067EF08F000EFA9
:1011E00000F0000E426E030E416E000E3E6E030EC6
:1011F0003D6E000E2C6E030E2B6E000E2E6E040E36
:101200002D6E000E306E000E2F6E29042A10D8A409
:101210000CEF09F00EEF09F012EF09F031683268B7
:1012200016EF09F0000E326E010E316E000E4A6E9E
:10123000000E496E4ABE26EF09F04A5009E1460EFB
:10124000495CD8A026EF09F028EF09F02AEF09F051
:1012500067EF09F001C08AFF3D50020DF350E00F27
:10126000D96EDA6ADF508C6E030E4B6E980EE82E44
:10127000FED74B2EFCD72D50020DF350010FD96E27
:10128000DA6ADF508A6E2B50020DF350110FD96EBF
:10129000DA6ADF508C6E030E4B6E980EE82EFED786
:1012A0004B2EFCD70FC08AFF4150020DF350E00FC8
:1012B000D96EDA6ADF508C6E030E4B6E980EE82EF4
:1012C000FED74B2EFCD7494A4A2A1AEF09F01200E2
:1012D000000E4A6E000E496E4ABE78EF09F04A5081
:1012E00009E1030E495CD8A078EF09F07AEF09F024
:1012F0007CEF09F0D6EF09F0000E486E000E476E45
:1013000048BE8CEF09F0485009E1320E475CD8A086
:101310008CEF09F08EEF09F090EF09F0C3EF09F0C0
:10132000000E466E020E456E46BEA0EF09F0465016
:1013300009E1060E455CD8A0A0EF09F0A2EF09F084
:10134000A4EF09F0BFEF09F04550020DF350110F63
:10135000D96EDA6ADF508C6E4550020DF3501D0FC6
:10136000D96EDA6ADF508A6E030E4B6E980EE82E45
:10137000FED74B2EFCD7454A462A94EF09F0474A40
:10138000482A80EF09F0000E8C6E8A68020E4C6EBF
:10139000040E4B6EBA0EE82EFED74B2EFCD74C2E09
:1013A000FAD700D0494A4A2A6CEF09F01200000E21
:1013B0004A6E000E496E4ABEE7EF09F04A5009E155
:1013C000030E495CD8A0E7EF09F0E9EF09F0EBEF75
:1013D00009F045EF0AF0000E486E000E476E48BE59
:1013E000FBEF09F0485009E1320E475CD8A0FBEF53
:1013F00009F0FDEF09F0FFEF09F032EF0AF0000EFF
:10140000466E020E456E46BE0FEF0AF0465009E1E9
:10141000060E455CD8A00FEF0AF011EF0AF013EFAB
:101420000AF02EEF0AF04550020DF350110FD96E5D
:10143000DA6ADF508C6E4550020DF350EA0FD96E18
:10144000DA6ADF508A6E030E4B6E980EE82EFED7D6
:101450004B2EFCD7454A462A03EF0AF0474A482A52
:10146000EFEF09F0000E8C6E8A68020E4C6E040ECF
:101470004B6EBA0EE82EFED74B2EFCD74C2EFAD769
:1014800000D0494A4A2ADBEF09F0120010007D0023
:101490007000FF00100072007609FF000000CD0010
:1014A0001000FF0001006A009100FF00F000FD0045
:1014B000F0003F000B00F400F400FF004B0044007C
:1014C0000400FF00E8001800E000FF00E100F90060
:1014D000F700EF00F700E100ED00FF00E100F90088
:1014E000F700EF00F700E100F900FF00FF007F00C8
:1014F0003F001F000F00070003000100FF00FE0077
:10150000FC00F800F000E000C000800003000600CE
:101510000C00180030006000C000BB00B900810062
:10152000BF00BF00000E4A6E000E496E4ABEA2EF19
:101530000AF04A5009E1640E495CD8A0A2EF0AF013
:10154000A4EF0AF0A6EF0AF0D8EF0AF011C08CFF62
:101550004350020DF350C00FD96EDA6ADF508A6E25
:10156000030E4B6E980EE82EFED74B2EFCD71FC0F5
:101570008CFF3F50020DF350D00FD96EDA6ADF5066
:101580008A6E030E4B6E980EE82EFED74B2EFCD7BC
:10159000494A4A2A4ABED6EF0AF04A5009E1640E87
:1015A000495CD8A0D6EF0AF0D8EF0AF0A6EF0AF00F
:1015B0001200000E4A6E000E496E4ABEE9EF0AF0B4
:1015C0004A5009E10A0E495CD8A0E9EF0AF0EBEFB6
:1015D0000AF0EDEF0AF01DEF0BF0000E466E000E64
:1015E000456E46BEFDEF0AF0465009E1080E455C27
:1015F000D8A0FDEF0AF0FFEF0AF001EF0BF019EFB2
:101600000BF04550020DF350110FD96EDA6ADF501E
:101610008C6E4550020DF350B00FD96EDA6ADF5070
:101620008A6EA60EE82EFED700D0454A462AF1EF74
:101630000AF0494A4A2ADDEF0AF01200000E4A6E0B
:10164000000E496E4ABE2EEF0BF04A5009E10A0E19
:10165000495CD8A02EEF0BF030EF0BF032EF0BF01F
:1016600062EF0BF0000E466E000E456E46BE42EF76
:101670000BF0465009E1080E455CD8A042EF0BF094
:1016800044EF0BF046EF0BF05EEF0BF04550020D10
:10169000F350110FD96EDA6ADF508C6E4550020D8F
:1016A000F350A00FD96EDA6ADF508A6EA60EE82ECC
:1016B000FED700D0454A462A36EF0BF0494A4A2A5F
:1016C00022EF0BF01200000E4A6E000E496E4ABE69
:1016D00073EF0BF04A5009E10A0E495CD8A073EF92
:1016E0000BF075EF0BF077EF0BF0A7EF0BF0000EA0
:1016F000466E000E456E46BE87EF0BF0465009E180
:10170000080E455CD8A087EF0BF089EF0BF08BEF4C
:101710000BF0A3EF0BF04550020DF350110FD96EF3
:10172000DA6ADF508C6E4550020DF350800FD96E8F
:10173000DA6ADF508A6EA60EE82EFED700D0454A40
:10174000462A7BEF0BF0494A4A2A67EF0BF012005A
:10175000000E4A6E000E496E4ABEB8EF0BF04A50BA
:1017600009E10A0E495CD8A0B8EF0BF0BAEF0BF014
:10177000BCEF0BF0ECEF0BF0000E466E000E456E6A
:1017800046BECCEF0BF0465009E1080E455CD8A0F0
:10179000CCEF0BF0CEEF0BF0D0EF0BF0E8EF0BF04F
:1017A0004550020DF350110FD96EDA6ADF508C6E7E
:1017B0004550020DF350600FD96EDA6ADF508A6E21
:1017C000A60EE82EFED700D0454A462AC0EF0BF001
:1017D000494A4A2AACEF0BF01200000E4A6E000E86
:1017E000496E4ABEFDEF0BF04A5009E10A0E495C12
:1017F000D8A0FDEF0BF0FFEF0BF001EF0CF031EF95
:101800000CF0000E466E000E456E46BE11EF0CF059
:10181000465009E1080E455CD8A011EF0CF013EF1B
:101820000CF015EF0CF02DEF0CF04550020DF350BD
:10183000110FD96EDA6ADF508C6E4550020DF350ED
:10184000700FD96EDA6ADF508A6EA60EE82EFED7C8
:1018500000D0454A462A05EF0CF0494A4A2AF1EFE2
:101860000BF01200000E4A6E000E496E4ABE42EFA7
:101870000CF04A5009E10A0E495CD8A042EF0CF086
:1018800044EF0CF046EF0CF076EF0CF0000E466ED5
:10189000000E456E46BE56EF0CF0465009E1080EAC
:1018A000455CD8A056EF0CF058EF0CF05AEF0CF056
:1018B00072EF0CF04550020DF350110FD96EDA6A39
:1018C000DF508C6E4550020DF350900FD96EDA6ADE
:1018D000DF508A6EA60EE82EFED700D0454A462A73
:1018E0004AEF0CF0494A4A2A36EF0CF0120001C0C8
:1018F0008AFF3D50020DF350E00FD96EDA6ADF50D7
:101900008C6EC80E00D000D0E82EFCD72D50020DF2
:10191000F350010FD96EDA6ADF508A6E2B50020D38
:10192000F350110FD96EDA6ADF508C6EC80E00D0FA
:1019300000D0E82EFCD70FC08AFF4150020DF350B3
:10194000E00FD96EDA6ADF508C6EC80E00D000D07E
:10195000E82EFCD712008C0EF66E140EF76E000EF9
:10196000F86E00EE60F010EE98F00900F5CFEEFF93
:10197000E550E150FAE1A80EF66E190EF76E000E72
:10198000F86E00EE01F010EE2AF00900F5CFEEFF40
:10199000E550E150FAE100EE2BF0200EEE6AE80689
:1019A000FDE1000151EF08F0FE00FD00FB00F70033
:1019B000EF00DF00BF007F0001000200040008000C
:1019C00010002000400080009B00AD00B500BB006F
:1019D00002004B504D02F3CF4FF0F4CF50F04B507C
:1019E0004E02F35050264C504D02F35050264FC03B
:0819F0004BF050C04CF0120056
:020000040030CA
:0E0000000009181EFF8481FF0FC00FE00F40A3
:00000001FF
